:020000040800F2
:10000000A8050020DD01000859180008591700084C
:100010005518000849020008B11C00080000000043
:100020000000000000000000000000004501000882
:100030004D02000800000000890100088518000832
:10004000F7010008F7010008F7010008F7010008B0
:10005000F7010008F7010008F7010008F7010008A0
:10006000F7010008F7010008F7010008F701000890
:10007000F7010008F7010008F7010008F701000880
:10008000F7010008F7010008F7010008F701000870
:10009000F7010008F7010008F7010008F701000860
:1000A000F7010008F7010008F7010008F701000850
:1000B000F7010008F7010008F7010008F701000840
:1000C000F7010008F7010008F7010008F701000830
:1000D000F7010008A11C0008F7010008F70100085B
:1000E000F7010008F7010008F7010008F701000810
:1000F000F7010008F7010008F7010008F701000800
:10010000F7010008F7010008F7010008F7010008EF
:10011000F7010008F7010008F7010008FD180008C2
:10012000F7010008F7010008F7010008F7010008CF
:10013000DFF80CD000F076F8004800470B1D0008EF
:10014000A8050020224B19680868B0E8F00F80F37A
:100150000988BFF36F8F4FF0000080F311884EF0D5
:100160000D0E70470000000006480068006880F32C
:10017000088862B661B6BFF34F8FBFF36F8F00DFA1
:1001800000BF00BF08ED00E0EFF30980BFF36F8F01
:100190000F4B1A6820E9F00F106008B54FF0BF0050
:1001A00080F31188BFF34F8FBFF36F8F01F0D0FD45
:1001B0004FF0000080F31188BDE808401968086816
:1001C000B0E8F00F80F30988BFF36F8F704700BF6E
:1001D00010000020EFF305807047000006488047BC
:1001E00006480047FEE7FEE7FEE7FEE7FEE7FEE71C
:1001F000FEE7FEE7FEE7FEE7FB1800083101000816
:10020000D2B201E000F8012B491EFBD27047002258
:10021000F6E710B513460A4604461946FFF7F0FF05
:10022000204610BD064C074D06E0E06840F0010393
:1002300094E8070098471034AC42F6D3FFF77CFFF0
:10024000C01F0008E01F000800BFFEE7704772B63D
:1002500000BFFEE70146002291F82100022808D0E5
:100260000420886300BF002081F8200000BF012027
:1002700070470868006820F00E000B681860086876
:10028000006820F001000B68186091F840300120F0
:100290009840CB6B5860012081F8210000BF0020FE
:1002A00081F8200000BF1046E2E7000070B5044668
:1002B000002594F82100022803D00420A063012522
:1002C000C1E02068006820F00E0021680860206806
:1002D000006820F00100216808605C4920688842BD
:1002E00052D95A4978392068884201D1012047E023
:1002F000564964392068884201D1102040E05349B2
:1003000050392068884201D1801539E04F493C3985
:100310002068884201D1801432E04C492839206895
:10032000884202D14FF480302AE0484914392068CD
:10033000884202D14FF4801022E04449206888426C
:1003400001D140041CE042492068884201D10120CB
:1003500016E03F4914312068884201D110200FE097
:100360003B4928312068884201D1801508E038498E
:100370003C312068884201D1801401E04FF4803084
:100380003349091F086051E03049783920688842B4
:1003900001D1012047E02D4964392068884201D10C
:1003A000102040E0294950392068884201D1801549
:1003B00039E026493C392068884201D1801432E076
:1003C000224928392068884202D14FF480302AE03F
:1003D0001E4914392068884202D14FF4801022E06F
:1003E0001A492068884201D140041CE0184920685D
:1003F000884201D1012016E0154914312068884255
:1004000001D110200FE0124928312068884201D123
:10041000801508E00E493C312068884201D18014E3
:1004200001E04FF48030094980394860012084F8A8
:10043000210000BF002084F8200000BF606B10B1D5
:100440002046616B8847284670BD0000800002404E
:10045000080402402DE9F847024600239C467BE150
:100460004FF0010808FA03F4D1F8008008EA04000C
:10047000A0427DD1DFF8F4A2D1F80480A8EB0A09EC
:10048000D0453AD014DCB8F1030F50D009DCB8F1F4
:10049000000F31D0B8F1010F1CD0B8F1020F49D1D3
:1004A00020E0B8F1110F18D0B8F1120F42D11EE0C0
:1004B000B9F5881F25D006DCB9F5803F20D0B9F505
:1004C000801F37D11AE0B9F5001F18D0B9F5041F05
:1004D00030D117E0D1F80CC02DE0D1F80C8008F134
:1004E000040C28E0D1F80C8008F1080C23E0D1F8C6
:1004F0000C8008F10C0C1EE000BF00BF00BF00BF65
:1005000000BF00BFD1F80880B8F1000F02D14FF052
:10051000040C0BE0D1F80880B8F1010F03D14FF0C3
:10052000080C146102E04FF0080C546103E04FF036
:10053000000C00E000BF00BFFF2801D8904601E09A
:1005400002F104084646FF2802D84FEA830803E078
:10055000A3F108084FEA88084746D6F800804FF014
:100560000F0909FA07F928EA09080CFA07F900E067
:100570007AE048EA0908C6F80080D1F8048008F05B
:100580008058B8F1805F6FD100BFDFF8E481D8F800
:10059000188048F00108DFF8D891C9F81880C846DB
:1005A000D8F8188008F00108CDF8008000BF00BF1F
:1005B0004FEAB9384FEA930958F829504FEA83783F
:1005C0004FEA18794FF00F0808FA09F825EA0805EC
:1005D000DFF8A081424502D14FF0000824E0DFF8A7
:1005E0009881424502D14FF001081DE0DFF88C816F
:1005F000424502D14FF0020816E0DFF884814245FF
:1006000002D14FF003080FE0DFF87881424502D1B4
:100610004FF0040808E0DFF87081424502D14FF046
:10062000050801E04FF006084FEA83794FEA19798F
:1006300008FA09F848EA0505DFF850814FEA9309FE
:1006400048F82950D1F8048008F48018B8F5801FC4
:100650000BD1DFF83C81D8F8008048EA0008DFF8C9
:100660003091C9F800800AE075E0DFF82481D8F8FD
:10067000008028EA0008DFF81891C9F80080D1F856
:10068000048008F40018B8F5001F0ED1DFF80081CF
:1006900008F10408D8F8008048EA0008DFF8F09074
:1006A00009F10409C9F800800DE0DFF8E48008F1E1
:1006B0000408D8F8008028EA0008DFF8D49009F18F
:1006C0000409C9F80080D1F8048008F40038B8F5AE
:1006D000003F0ED1DFF8B880A8F10408D8F80080F8
:1006E00048EA0008DFF8A890A9F10409C9F80080D9
:1006F0000DE0DFF89C80A8F10408D8F8008028EA13
:100700000008DFF88C90A9F10409C9F80080D1F83D
:10071000048008F48038B8F5803F0ED1DFF870808F
:10072000A8F10808D8F8008048EA0008DFF86090CF
:10073000A9F10809C9F800800DE0DFF85480A8F19C
:100740000808D8F8008028EA0008DFF84490A9F1EA
:100750000809C9F800805B1CD1F8008028FA03F86A
:10076000B8F1000F7FF47CAEBDE8F88700001110EF
:100770000010024000080140000C01400010014040
:100780000014014000180140001C01400800014015
:10079000080401400AB1016101E00B0403617047E4
:1007A000014800687047000000000020034800680E
:1007B0000349097808440149086070470000002097
:1007C0000800002010B50848006840F010000649F5
:1007D0000860032000F0DCF8012000F007F800F0CA
:1007E0005FF8002010BD0000002002402DE9F0411C
:1007F00088B004460027B846002600BF2348C069D9
:1008000040F020002149C8610846C06900F020007E
:10081000019000BF00BF02A903A800F093F9069F52
:100820001FB900F0B7F9054602E000F0B3F9450042
:100830001748B5FBF0F0A0F101081648164908600A
:1008400040F2E7311448C160C0F804800021016122
:100850008160816100F02AFC064696B90E4800F0DE
:1008600059FC06466EB9372000F044F8102C07D228
:1008700000222146372000F04DF80848046000E0CF
:100880000126304608B0BDE8F081000000100240AB
:1008900040420F0000140040980000200400002097
:1008A00008B500BF1148806940F001000F49886118
:1008B0000846806900F00100009000BF00BF00BF43
:1008C0000846C06940F08050C8610846C06900F021
:1008D0008050009000BF00BF00BF0549486820F06D
:1008E000E06040F00070486000BF08BD00100240AA
:1008F0000000014001460846002809DB00F01F0304
:1009000001229A4043099B0003F1E023C3F8002130
:1009100000BF70472DE9F05F80460D461646002760
:1009200001F0C8F9074639462A46334601F0070068
:10093000C0F1070ABAF1040F02D94FF0040A01E02E
:10094000C0F1070AD14600F1040ABAF1070F02D23A
:100950004FF0000A01E0A0F1030AD4464FF0010A6B
:100960000AFA09FAAAF1010A0AEA020A0AFA0CFAD0
:100970004FF0010B0BFA0CFBABF1010B0BEA030B75
:100980004AEA0B042146404601F09CF9BDE8F09F7D
:1009900000BF00F00702064B19684FF6FF0319402D
:1009A000044B0B4343EA0221014B196000BF70471F
:1009B0000CED00E00000FA0570B504460D460CB9D8
:1009C000012070BD5A48006800F00700A8420ED20E
:1009D0005748006820F0070028435549086008463A
:1009E000006800F00700A84201D00120E9E7207864
:1009F00000F0020002281DD1207800F00400042835
:100A000005D14C48406840F4E0604A49486020788D
:100A100000F00800082805D14648406840F46050BE
:100A2000444948604348406820F0F000A16808430A
:100A300040494860207800F0010078B360680128E0
:100A400006D13C48006800F4003090B90120B8E7B6
:100A50006068022806D13748006800F0007040B98D
:100A60000120AEE73348006800F0020008B9012019
:100A7000A7E73048406820F00300616808432D492B
:100A80004860FFF78DFE064609E0FFF789FE801BF0
:100A900041F28831884202D9032092E707E02548D5
:100AA000406800F00C006168B0EB810FEDD1204888
:100AB000006800F00700A8420ED91D48006820F029
:100AC000070028431A4908600846006800F007003C
:100AD000A84201D0012074E7207800F00400042827
:100AE00007D11448406820F4E060E16808431149E8
:100AF0004860207800F00800082808D10D484068B8
:100B000020F46050216940EAC1000A49486000F0C1
:100B100061F808494968C1F30311074A515CC840AC
:100B20000649086006480068FFF760FE002048E7B5
:100B30000020024000100240A61F00080C00002008
:100B4000040000200F2202600D4A526802F00302E6
:100B500042600B4A526802F0F0028260084A526812
:100B600002F4E062C260064A526802F46052D2089F
:100B70000261044A126802F007020A60704700002E
:100B80000010024000200240014800687047000049
:100B90000C00002000B5FFF7F7FF04494968C1F3D6
:100BA0000221034A515CC84000BD00000010024011
:100BB000B61F000800B5FFF7E7FF04494968C1F315
:100BC000C221034A515CC84000BD00000010024031
:100BD000B61F000870B50021002200240023002069
:100BE000134D696801F00C05F5B1042D02D0082DF4
:100BF00019D101E00F4819E00F4DC1F38346AB5DF9
:100C000001F4803555B10A4D6D68C5F340450B4E72
:100C1000725D084D5D43B5FBF2F402E0084D03FB45
:100C200005F4204602E000BF024800BF00BF70BDCF
:100C30000010024000127A00941F0008A41F000850
:100C400000093D00F8B504460CB90120F8BD207834
:100C500000F00100002878D0F848406800F00C004F
:100C600004280CD0F548406800F00C00082811D189
:100C7000F248406800F48030B0F5803F0AD1EF4878
:100C8000006800F4003000285FD0606800285CD164
:100C90000120DBE700BF6068B0F5803F06D1E74880
:100CA000006840F48030E549086028E0606858B981
:100CB000E248006820F48030E04908600846006897
:100CC00020F4802008601AE06068B0F5A02F0BD1F6
:100CD000DA48006840F48020D84908600846006877
:100CE00040F4803008600AE0D448006820F4803086
:100CF000D24908600846006820F48020086000BFE0
:100D0000606888B1FFF74CFD054606E0FFF748FD37
:100D1000401B642801D9032098E7C848006800F404
:100D200000300028F2D010E0FFF73AFD054606E05B
:100D3000FFF736FD401B642801D9032086E7BF4832
:100D4000006800F400300028F2D1207800F00200A2
:100D5000022857D1B948406800F00C0050B1B7489C
:100D6000406800F00C00082818D1B448406800F42E
:100D7000803098B9B148006800F0020020B12069C5
:100D8000012801D0012061E7AC48006820F0F8009C
:100D9000616940EAC100A949086033E02069E8B10F
:100DA0000120A7490860FFF7FBFC054606E0FFF7B6
:100DB000F7FC401B022801D9032047E79F48006841
:100DC00000F002000028F2D09C48006820F0F800F3
:100DD000616940EAC1009949086013E00020984920
:100DE0000860FFF7DDFC054606E0FFF7D9FC401B75
:100DF000022801D9032029E79048006800F002008A
:100E00000028F2D1207800F0080008282DD1A06930
:100E1000B8B101208B490860FFF7C2FC054606E027
:100E2000FFF7BEFC401B022801D903200EE78348D0
:100E3000406A00F002000028F2D0012000F00EFD10
:100E400013E000207F490860FFF7AAFC054606E092
:100E5000FFF7A6FC401B022801D90320F6E67748DD
:100E6000406A00F002000028F2D1207800F004006F
:100E7000042873D100277148C06900F0805070B910
:100E800000BF6E48C06940F080506C49C861084698
:100E9000C06900F08050009000BF00BF01276A4881
:100EA000006800F48070B0B96748006840F4807052
:100EB00065490860FFF774FC054606E0FFF770FC23
:100EC000401B642801D90320C0E65F48006800F495
:100ED00080700028F2D000BFE068012806D1574892
:100EE000006A40F001005549086227E0E06858B9FF
:100EF0005248006A20F00100504908620846006A22
:100F000020F00400086219E0E06805280BD14B4886
:100F1000006A40F00400494908620846006A40F04F
:100F2000010008620AE04548006A20F001004349D8
:100F300008620846006A20F00400086200BFE0680A
:100F4000A0B1FFF72DFC054609E0FFF729FC401B87
:100F500041F28831884202D9032077E622E03748FF
:100F6000006A00F002000028EFD012E0FFF718FC42
:100F7000054608E0FFF714FC401B41F28831884227
:100F800001D9032062E62D48006A00F00200002823
:100F9000F0D1012F05D12948C06920F080502749A0
:100FA000C86100BFE069C8B32448406800F00C0085
:100FB000082860D0E069022848D10020204908664E
:100FC000FFF7EEFB054606E0FFF7EAFB401B0228B1
:100FD00001D903203AE61948006800F000700028A3
:100FE000F2D1206AB0F5803F07D11448406820F460
:100FF0000030A168084311494860D4E9080108435A
:101000000E49496821F4741108430C4948600120D5
:101010000B490866FFF7C4FB054607E03DE0FFF714
:10102000BFFB401B022801D903200FE603480068DC
:1010300000F000700028F2D02FE000000010024005
:1010400000004242800442420070004000201449E7
:101050000866FFF7A5FB054606E0FFF7A1FB401B6E
:10106000022801D90320F1E50E48006800F0007065
:101070000028F2D111E0E069012800D1E6E5094835
:10108000466806F48031206A814204D106F470116A
:10109000606A814201D00120D8E50020D6E5000039
:1010A00000004242001002407047704710B50446ED
:1010B0000CB9012010BD94F83D0028B9002084F837
:1010C0003C00204600F025F8022084F83D00211D58
:1010D000206800F01BFC012084F8460000BF84F863
:1010E0003E0001213F20015540200155412001557E
:1010F00000BF00BF012084F8420043200155442076
:1011000001554520015500BF012084F83D00002015
:10111000D0E77047014691F83D00012801D0012039
:101120007047022081F83D000868C06840F0010067
:101130000B68D860164B0868984213D0154B0868A6
:1011400098420FD00868B0F1804F0BD0124B08685E
:10115000984207D0114B0868984203D0104B08689A
:1011600098420CD10868806800F00702062A0CD06B
:101170000868006840F001000B68186005E0086826
:10118000006840F001000B6818600020C8E700000C
:10119000002C0140003401400004004000080040E1
:1011A000000C0040704710B5044620680069C0F389
:1011B0004000D8B12068C068C0F34000B0B16FF003
:1011C000020021680861012020772068806900F012
:1011D000030018B12046FFF7E5FF05E0204600F0C8
:1011E000ADF8204600F0ABF80020207720680069B9
:1011F000C0F38000D8B12068C068C0F38000B0B1EF
:101200006FF004002168086102202077206880695F
:1012100000F4407018B12046FFF7C4FF05E02046F7
:1012200000F08CF8204600F08AF800202077206833
:101230000069C0F3C000D8B12068C068C0F3C00026
:10124000B0B16FF0080021680861042020772068A1
:10125000C06900F0030018B12046FFF7A3FF05E0C6
:10126000204600F06BF8204600F069F80020207757
:1012700020680069C0F30010D8B12068C068C0F3CE
:101280000010B0B16FF010002168086108202077CD
:101290002068C06900F4407018B12046FFF782FF53
:1012A00005E0204600F04AF8204600F048F800200B
:1012B00020772068006900F0010058B12068C068FC
:1012C00000F0010030B16FF0010021680861204694
:1012D00000F036F820680069C0F3C01058B12068EB
:1012E000C068C0F3C01030B16FF0800021680861A1
:1012F0002046FFF7D9FE20680069C0F3801058B17E
:101300002068C068C0F3801030B16FF040002168E1
:101310000861204600F020F820680069C0F3401002
:1013200058B12068C068C0F3401030B16FF02000A1
:10133000216808612046FFF7B8FE10BD704770476E
:1013400010B5044603492068884201D1FFF72EFA00
:1013500010BD000000140040704770477047000047
:101360002DE9F84F0446206805682068C6682068A3
:1013700047694FF00009CA4605F00F09B9F1000F9F
:101380000AD105F0200038B106F0200020B1204637
:1013900000F05AFBBDE8F88FB9F1000F7BD007F0E1
:1013A000010018B906F49070002874D005F001000F
:1013B00030B106F4807018B1606C40F001006064D8
:1013C00005F0040030B107F0010018B1606C40F086
:1013D0000200606405F0020030B107F0010018B1AE
:1013E000606C40F00400606405F0080048B106F04D
:1013F000200010B907F0010018B1606C40F008003F
:101400006064606C002845D005F0200028B106F02B
:10141000200010B1204600F017FB20684069C0F39F
:10142000801A606C00F0080010B9BAF1000F2CD0DF
:10143000204600F0C3FA2068406900F0400000B385
:1014400000BF00BF2168143151E8001F21F04000A7
:101450002168143141E80002002AF3D100BFE06B9B
:1014600050B17748E16B4863E06BFEF71FFF88B12E
:10147000E06B416B88470DE02046FFF76FFF09E006
:1014800009E02046FFF76AFF04E02046FFF766FF09
:10149000002060647EE7206B012877D105F0100002
:1014A000002873D006F010000028FAD000BF0020FA
:1014B000009020680068009020684068009000BF9D
:1014C00000BF2068406900F0400000285FD0E06B5A
:1014D000006840681FFA80F8B8F1000F55D0A08D61
:1014E000404552DDA4F82E80E06B8069202843D06F
:1014F00000BF00BF21680C3151E8001F21F480704B
:1015000021680C3141E80002002AF3D100BF00BF7E
:1015100000BF2168143151E8001F21F0010021684B
:10152000143141E80002002AF3D100BF00BF00BF20
:101530002168143151E8001F21F040002168143166
:1015400041E80002002AF3D100BF202084F84200C5
:101550000020206300BF00BF21680C3151E8001F4C
:1015600021F0100021680C3141E80002002AF3D17B
:1015700000BFE06BFEF76EFE02206063A08DE28D7F
:10158000801A81B22046FFF7E8FE03E742E0A08D13
:10159000E18D401A1FFA80F8E08DD0B3B8F1000F4A
:1015A00037D000BF00BF21680C3151E8001F21F483
:1015B000907021680C3141E80002002AF3D100BF8D
:1015C00000BF00BF2168143151E8001F21F0010065
:1015D0002168143141E80002002AF3D100BF202025
:1015E00084F842000020206300BF00BF21680C3156
:1015F00051E8001F21F0100021680C3141E8000281
:10160000002AF3D100BF0220606341462046FFF765
:10161000A4FEBFE605F0800030B106F0800018B1EE
:10162000204600F00DFBB5E605F0400030B106F0B5
:10163000400018B1204600F0F7F9ABE600BFA9E67C
:10164000A919000810B504460CB9012010BDA06905
:1016500000B100E000BF94F8410028B9002084F8F0
:101660004000204600F02AF8242084F84100206839
:10167000C06820F400502168C860204600F062FA7B
:101680002068006920F49040216808612068406962
:1016900020F02A00216848612068C06840F40050AA
:1016A0002168C86000206064202084F8410084F82C
:1016B00042000020606300BFC8E7000010B586B09C
:1016C0000446002002900390049005901E49206873
:1016D000884236D100BF1D48806940F480401B49D4
:1016E00088610846806900F48040019000BF00BF17
:1016F00000BF0846806940F00400886108468069A0
:1017000000F00400019000BF00BF481502900220C5
:1017100003900320059002A90D48FEF79BFE4FF4AD
:101720008060029000200390049002A90848FEF710
:1017300091FE002211462520FFF7ECF82520FFF747
:10174000D9F806B010BD000000380140001002407A
:10175000000801407047704700BFFEE700B585B044
:101760000020019002900390049000BF28488069F7
:1017700040F01000264988610846806900F010009A
:10178000009000BF00BF00BF0846806940F08000A5
:1017900088610846806900F08000009000BF00BFAB
:1017A00000BF0846806940F00400886108468069EF
:1017B00000F00400009000BF00BF012240F20311BE
:1017C0001448FEF7E7FF4FF44070019000200290AC
:1017D0000120039001A91048FEF73CFE4FF4406041
:1017E0000190002002900220039001A90A48FEF710
:1017F00031FE40F20310019001200290002003907E
:101800000320049001A90348FEF724FE05B000BDA3
:101810000010024000080140001C014010B50B48B8
:101820000B4908604FF4E1304860002108488160AE
:10183000C16001610C21416100218161C161FFF73B
:1018400001FF08B1FEF703FD10BD000000380140A4
:101850005000002000BFFEE700BFFEE708B50849C2
:101860000968C9084FF47A72B1FBF2F14143009163
:1018700000BF00BF00994A1E00920029F9D108BD9F
:101880000C00002010B500F0ADFA012801D000F0E6
:101890008FFA10BD00B58FB0282105A8FEF7B7FC60
:1018A00014216846FEF7B3FC012005900004069061
:1018B000002007900120099002200C90C1030D9197
:1018C0004FF4E0110E9105A8FFF7BCF908B1FEF73F
:1018D000BEFC0F20009002200190002002904FF4E7
:1018E000806003900020049002216846FFF764F8AE
:1018F00008B1FEF7ACFC0FB000BD704710B5024850
:10190000FFF751FC10BD00009800002010B50268E0
:10191000204B98420ED0204B98420BD0B0F1804F14
:1019200008D01E4B984205D01D4B984202D01D4B4B
:10193000984203D122F070024B681A43154B98422B
:101940000ED0154B98420BD0B0F1804F08D0134BFE
:10195000984205D0124B984202D0124B984203D1C4
:1019600022F44072CB681A4322F080034C6943EAA8
:10197000040202608B68C3620B688362054B984265
:1019800002D0054B984201D10B69036301234361E7
:1019900010BD0000002C0140003401400004004054
:1019A00000080040000C004070B505466C6A00203D
:1019B000E085E0842046FFF7D1FC70BD00BF00BF8A
:1019C00002680C3252E8002F22F4907102680C3247
:1019D00042E80013002BF3D100BF00BF00BF026834
:1019E000143252E8002F22F001010268143242E85A
:1019F0000013002BF3D100BF016B01290ED100BFF2
:101A000000BF02680C3252E8002F22F01001026879
:101A10000C3242E80013002BF3D100BF202180F8E4
:101A2000421000210163704710B504462068C06869
:101A300020F040002168C860202084F84100204642
:101A4000FFF789FE002010BDF8B5044694F8420067
:101A5000222875D1A068B0F5805F0CD1206950B9FB
:101A60000025A66A20684068C0F308003080A06A9C
:101A7000801CA06215E0A56A0026A068B0F5805F12
:101A800003D0A06828B9206918B920684068287078
:101A900004E02068406800F07F002870A06A401CC5
:101AA000A062E08D401E80B2E085002846D120680B
:101AB000C06820F020002168C8602068C06820F459
:101AC00080702168C8602068406920F001002168AA
:101AD0004861202084F8420000206063206B0128C8
:101AE00026D10020206300BF00BF21680C3151E8DF
:101AF000001F21F0100021680C3141E80002002A8B
:101B0000F3D100BF2068006800F0100010280AD14F
:101B100000BF0020009020680068009020684068A6
:101B2000009000BF00BFA18D2046FFF716FC02E029
:101B30002046FFF70FFE0020F8BD01E00020FBE784
:101B40000220F9E770B504462168096921F4405183
:101B5000E2681143226811612269A1681143626938
:101B600041EA02052168C96841F20C6291432943A8
:101B70002268D1602168496921F44071A26911434A
:101B8000226851612D4A2168914202D1FFF712F873
:101B900001E0FEF7FFFF00EBC00101EB00116268FE
:101BA0009200B1FBF2F100EBC00202EB001263689D
:101BB0009B00B2FBF3F26423B2FBF3F202EBC2032D
:101BC00003EB0212A1EB8201322202EB011164222B
:101BD000B1FBF2F101F0F00100EBC00202EB0012E8
:101BE00063689B00B2FBF3F26423B2FBF3F201EBF8
:101BF000021200EBC00101EB001163689B00B1FB16
:101C0000F3F100EBC00303EB00136668B600B3FB0F
:101C1000F6F36426B3FBF6F303EBC30606EB0313FC
:101C2000A1EB8301322303EB01116423B1FBF3F138
:101C300001F00F0111442268916070BD003801402D
:101C4000014691F84100212828D18868B0F5805FCD
:101C50000BD1086948B90A6A1088C0F308000B68FC
:101C60005860086A801C086205E00B6A581C08620C
:101C700018780B685860C88C401E80B2C88458B968
:101C80000868C06820F080000B68D8600868C068E9
:101C900040F040000B68D860002070470220FCE74D
:101CA00010B50248FFF75CFB10BD0000500000209B
:101CB00000BFFEE702480068C0F302207047000042
:101CC0000CED00E010B5002804DB0A07130E054AEE
:101CD000135406E00A07140E034A00F00F031B1FFB
:101CE000D45410BD00E400E018ED00E002E008C8A4
:101CF000121F08C1002AFAD170477047002001E086
:101D000001C1121F002AFBD17047FEF75BFDFFF7F0
:101D1000C1FDFFF723FDFFF781FD00BFFEE70000D7
:101D200009480068006808B9012000E0002020B1DF
:101D30004FF0FF300549086005E003480068C068BF
:101D4000006802490860704714000020400000202D
:101D50001248006818B10120114908601DE00020F8
:101D60000F4908600F480068B0FA80F0C0F11F0109
:101D700001EB81020C4B03EB820042685268426027
:101D800000F108024368934202D1426852684260FF
:101D90004268D268054B1A6000BF70474C000020B3
:101DA0003400002028000020E00000201000002067
:101DB00010B500BFBF2080F31188BFF34F8FBFF372
:101DC0006F8F00BF00F01EF818B14FF0805004492B
:101DD000086000BF002080F3118800BF10BD000024
:101DE00004ED00E00549096809B9012005E004494E
:101DF000096809B9022000E0002070472C0000208B
:101E00004C0000202DE9F0410027574800680028C9
:101E10007ED156480068451C544805608DB9544829
:101E2000D0F8008053480068514908605148C0F814
:101E3000008051480068401C4F490860FFF770FF60
:101E400000BF4E480068854276D300BF484800680E
:101E5000006808B9012000E0002020B14FF0FF30F9
:101E60004649086067E042480068C068C468666820
:101E7000B54202D2414806605DE06069D4E90212D1
:101E80008A60D4E902214A60211D42688A4201D158
:101E9000E1684160002262610168491E0160A06A38
:101EA00098B1A06AD4E907128A60D4E907214A6090
:101EB00004F1180142688A4201D1216A416000227E
:101EC000A2620168491E016000BF94F82C10012035
:101ED00088402B490968084329490860E16A01EBF9
:101EE0008101284A02EB81014868A0608268E260B3
:101EF000211D826851608160E16A01EB8101214A04
:101F000002EB81026261E16A01EB81011D4A00E09E
:101F100022E052F82110491CE26A02EB8202194BBE
:101F200043F822101849E06A0968C96A88428DD9C5
:101F300001278BE700E000BF13480068C06A00EB90
:101F40008000104951F82000012800D901270F48CE
:101F5000006800B1012704E00D480068401C0C49EE
:101F600008603846BDE8F0814C00002024000020C5
:101F7000140000201800002038000020400000203D
:101F800028000020E0000020100000203400002085
:101F90003000002002030405060708090A0B0C0D97
:101FA0000E0F1010010200000000000000000102EE
:101FB00003040607080900000000010203040000F2
:101FC000E01F00080000002050000000EC1C00088A
:101FD000302000085000002058050000FC1C0008BC
:101FE0000000000010000000010000000024F400C8
:101FF00000000000000000000000000000000000E1
:1020000000000000000000000000000000000000D0
:1020100000000000000000000000000000000000C0
:1020200000000000000000000400000000000000AC
:0400000508000131BD
:00000001FF
